{
  "_format": "hh-sol-artifact-1",
  "contractName": "properties",
  "sourceName": "contracts/properties.sol",
  "abi": [
    {
      "inputs": [],
      "stateMutability": "nonpayable",
      "type": "constructor"
    },
    {
      "anonymous": false,
      "inputs": [
        {
          "indexed": true,
          "internalType": "address",
          "name": "owner",
          "type": "address"
        },
        {
          "indexed": true,
          "internalType": "address",
          "name": "approved",
          "type": "address"
        },
        {
          "indexed": true,
          "internalType": "uint256",
          "name": "tokenId",
          "type": "uint256"
        }
      ],
      "name": "Approval",
      "type": "event"
    },
    {
      "anonymous": false,
      "inputs": [
        {
          "indexed": true,
          "internalType": "address",
          "name": "owner",
          "type": "address"
        },
        {
          "indexed": true,
          "internalType": "address",
          "name": "operator",
          "type": "address"
        },
        {
          "indexed": false,
          "internalType": "bool",
          "name": "approved",
          "type": "bool"
        }
      ],
      "name": "ApprovalForAll",
      "type": "event"
    },
    {
      "anonymous": false,
      "inputs": [
        {
          "indexed": false,
          "internalType": "uint256",
          "name": "id",
          "type": "uint256"
        }
      ],
      "name": "PropertyDoNotSell",
      "type": "event"
    },
    {
      "anonymous": false,
      "inputs": [
        {
          "indexed": false,
          "internalType": "uint256",
          "name": "id",
          "type": "uint256"
        },
        {
          "indexed": false,
          "internalType": "uint256",
          "name": "price",
          "type": "uint256"
        },
        {
          "indexed": false,
          "internalType": "address",
          "name": "owner",
          "type": "address"
        }
      ],
      "name": "PropertyOnSell",
      "type": "event"
    },
    {
      "anonymous": false,
      "inputs": [
        {
          "indexed": false,
          "internalType": "uint256",
          "name": "id",
          "type": "uint256"
        },
        {
          "indexed": false,
          "internalType": "address",
          "name": "buyer",
          "type": "address"
        }
      ],
      "name": "PropertySold",
      "type": "event"
    },
    {
      "anonymous": false,
      "inputs": [
        {
          "indexed": true,
          "internalType": "address",
          "name": "from",
          "type": "address"
        },
        {
          "indexed": true,
          "internalType": "address",
          "name": "to",
          "type": "address"
        },
        {
          "indexed": true,
          "internalType": "uint256",
          "name": "tokenId",
          "type": "uint256"
        }
      ],
      "name": "Transfer",
      "type": "event"
    },
    {
      "inputs": [
        {
          "internalType": "address",
          "name": "to",
          "type": "address"
        },
        {
          "internalType": "uint256",
          "name": "tokenId",
          "type": "uint256"
        }
      ],
      "name": "approve",
      "outputs": [],
      "stateMutability": "nonpayable",
      "type": "function"
    },
    {
      "inputs": [
        {
          "internalType": "address",
          "name": "owner",
          "type": "address"
        }
      ],
      "name": "balanceOf",
      "outputs": [
        {
          "internalType": "uint256",
          "name": "",
          "type": "uint256"
        }
      ],
      "stateMutability": "view",
      "type": "function"
    },
    {
      "inputs": [
        {
          "internalType": "uint256",
          "name": "id",
          "type": "uint256"
        }
      ],
      "name": "buyProperty",
      "outputs": [
        {
          "components": [
            {
              "internalType": "uint256",
              "name": "id",
              "type": "uint256"
            },
            {
              "internalType": "address",
              "name": "owner",
              "type": "address"
            },
            {
              "internalType": "bool",
              "name": "on_sell",
              "type": "bool"
            },
            {
              "internalType": "uint256",
              "name": "price",
              "type": "uint256"
            },
            {
              "internalType": "uint256",
              "name": "sell_start_time",
              "type": "uint256"
            }
          ],
          "internalType": "struct properties.Property",
          "name": "",
          "type": "tuple"
        }
      ],
      "stateMutability": "payable",
      "type": "function"
    },
    {
      "inputs": [
        {
          "internalType": "uint256",
          "name": "id",
          "type": "uint256"
        }
      ],
      "name": "cancelPropertySelling",
      "outputs": [
        {
          "components": [
            {
              "internalType": "uint256",
              "name": "id",
              "type": "uint256"
            },
            {
              "internalType": "address",
              "name": "owner",
              "type": "address"
            },
            {
              "internalType": "bool",
              "name": "on_sell",
              "type": "bool"
            },
            {
              "internalType": "uint256",
              "name": "price",
              "type": "uint256"
            },
            {
              "internalType": "uint256",
              "name": "sell_start_time",
              "type": "uint256"
            }
          ],
          "internalType": "struct properties.Property",
          "name": "",
          "type": "tuple"
        }
      ],
      "stateMutability": "nonpayable",
      "type": "function"
    },
    {
      "inputs": [
        {
          "internalType": "uint256",
          "name": "tokenId",
          "type": "uint256"
        }
      ],
      "name": "getApproved",
      "outputs": [
        {
          "internalType": "address",
          "name": "",
          "type": "address"
        }
      ],
      "stateMutability": "view",
      "type": "function"
    },
    {
      "inputs": [],
      "name": "getMyProperties",
      "outputs": [
        {
          "components": [
            {
              "internalType": "uint256",
              "name": "id",
              "type": "uint256"
            },
            {
              "internalType": "address",
              "name": "owner",
              "type": "address"
            },
            {
              "internalType": "bool",
              "name": "on_sell",
              "type": "bool"
            },
            {
              "internalType": "uint256",
              "name": "price",
              "type": "uint256"
            },
            {
              "internalType": "uint256",
              "name": "sell_start_time",
              "type": "uint256"
            }
          ],
          "internalType": "struct properties.Property[]",
          "name": "",
          "type": "tuple[]"
        }
      ],
      "stateMutability": "view",
      "type": "function"
    },
    {
      "inputs": [],
      "name": "getPropertiesOnSell",
      "outputs": [
        {
          "components": [
            {
              "internalType": "uint256",
              "name": "id",
              "type": "uint256"
            },
            {
              "internalType": "address",
              "name": "owner",
              "type": "address"
            },
            {
              "internalType": "bool",
              "name": "on_sell",
              "type": "bool"
            },
            {
              "internalType": "uint256",
              "name": "price",
              "type": "uint256"
            },
            {
              "internalType": "uint256",
              "name": "sell_start_time",
              "type": "uint256"
            }
          ],
          "internalType": "struct properties.Property[]",
          "name": "",
          "type": "tuple[]"
        }
      ],
      "stateMutability": "view",
      "type": "function"
    },
    {
      "inputs": [
        {
          "internalType": "address",
          "name": "owner",
          "type": "address"
        },
        {
          "internalType": "address",
          "name": "operator",
          "type": "address"
        }
      ],
      "name": "isApprovedForAll",
      "outputs": [
        {
          "internalType": "bool",
          "name": "",
          "type": "bool"
        }
      ],
      "stateMutability": "view",
      "type": "function"
    },
    {
      "inputs": [],
      "name": "name",
      "outputs": [
        {
          "internalType": "string",
          "name": "",
          "type": "string"
        }
      ],
      "stateMutability": "view",
      "type": "function"
    },
    {
      "inputs": [
        {
          "internalType": "address",
          "name": "to",
          "type": "address"
        }
      ],
      "name": "newProperty",
      "outputs": [],
      "stateMutability": "nonpayable",
      "type": "function"
    },
    {
      "inputs": [
        {
          "internalType": "uint256",
          "name": "tokenId",
          "type": "uint256"
        }
      ],
      "name": "ownerOf",
      "outputs": [
        {
          "internalType": "address",
          "name": "",
          "type": "address"
        }
      ],
      "stateMutability": "view",
      "type": "function"
    },
    {
      "inputs": [
        {
          "internalType": "uint256",
          "name": "id",
          "type": "uint256"
        },
        {
          "internalType": "uint256",
          "name": "price",
          "type": "uint256"
        }
      ],
      "name": "putPropertyOnSell",
      "outputs": [
        {
          "components": [
            {
              "internalType": "uint256",
              "name": "id",
              "type": "uint256"
            },
            {
              "internalType": "address",
              "name": "owner",
              "type": "address"
            },
            {
              "internalType": "bool",
              "name": "on_sell",
              "type": "bool"
            },
            {
              "internalType": "uint256",
              "name": "price",
              "type": "uint256"
            },
            {
              "internalType": "uint256",
              "name": "sell_start_time",
              "type": "uint256"
            }
          ],
          "internalType": "struct properties.Property",
          "name": "",
          "type": "tuple"
        }
      ],
      "stateMutability": "nonpayable",
      "type": "function"
    },
    {
      "inputs": [
        {
          "internalType": "address",
          "name": "from",
          "type": "address"
        },
        {
          "internalType": "address",
          "name": "to",
          "type": "address"
        },
        {
          "internalType": "uint256",
          "name": "tokenId",
          "type": "uint256"
        }
      ],
      "name": "safeTransferFrom",
      "outputs": [],
      "stateMutability": "nonpayable",
      "type": "function"
    },
    {
      "inputs": [
        {
          "internalType": "address",
          "name": "from",
          "type": "address"
        },
        {
          "internalType": "address",
          "name": "to",
          "type": "address"
        },
        {
          "internalType": "uint256",
          "name": "tokenId",
          "type": "uint256"
        },
        {
          "internalType": "bytes",
          "name": "data",
          "type": "bytes"
        }
      ],
      "name": "safeTransferFrom",
      "outputs": [],
      "stateMutability": "nonpayable",
      "type": "function"
    },
    {
      "inputs": [
        {
          "internalType": "address",
          "name": "operator",
          "type": "address"
        },
        {
          "internalType": "bool",
          "name": "approved",
          "type": "bool"
        }
      ],
      "name": "setApprovalForAll",
      "outputs": [],
      "stateMutability": "nonpayable",
      "type": "function"
    },
    {
      "inputs": [
        {
          "internalType": "bytes4",
          "name": "interfaceId",
          "type": "bytes4"
        }
      ],
      "name": "supportsInterface",
      "outputs": [
        {
          "internalType": "bool",
          "name": "",
          "type": "bool"
        }
      ],
      "stateMutability": "view",
      "type": "function"
    },
    {
      "inputs": [],
      "name": "symbol",
      "outputs": [
        {
          "internalType": "string",
          "name": "",
          "type": "string"
        }
      ],
      "stateMutability": "view",
      "type": "function"
    },
    {
      "inputs": [
        {
          "internalType": "uint256",
          "name": "tokenId",
          "type": "uint256"
        }
      ],
      "name": "tokenURI",
      "outputs": [
        {
          "internalType": "string",
          "name": "",
          "type": "string"
        }
      ],
      "stateMutability": "view",
      "type": "function"
    },
    {
      "inputs": [
        {
          "internalType": "address",
          "name": "from",
          "type": "address"
        },
        {
          "internalType": "address",
          "name": "to",
          "type": "address"
        },
        {
          "internalType": "uint256",
          "name": "tokenId",
          "type": "uint256"
        }
      ],
      "name": "transferFrom",
      "outputs": [],
      "stateMutability": "nonpayable",
      "type": "function"
    }
  ],
  "bytecode": "0x608060405234801561001057600080fd5b506040518060400160405280600a81526020017f70726f70657274696573000000000000000000000000000000000000000000008152506040518060400160405280600381526020017f5052500000000000000000000000000000000000000000000000000000000000815250816000908161008c919061033d565b50806001908161009c919061033d565b505050600060088190555033600660006101000a81548173ffffffffffffffffffffffffffffffffffffffff021916908373ffffffffffffffffffffffffffffffffffffffff16021790555061040f565b600081519050919050565b7f4e487b7100000000000000000000000000000000000000000000000000000000600052604160045260246000fd5b7f4e487b7100000000000000000000000000000000000000000000000000000000600052602260045260246000fd5b6000600282049050600182168061016e57607f821691505b60208210810361018157610180610127565b5b50919050565b60008190508160005260206000209050919050565b60006020601f8301049050919050565b600082821b905092915050565b6000600883026101e97fffffffffffffffffffffffffffffffffffffffffffffffffffffffffffffffff826101ac565b6101f386836101ac565b95508019841693508086168417925050509392505050565b6000819050919050565b6000819050919050565b600061023a6102356102308461020b565b610215565b61020b565b9050919050565b6000819050919050565b6102548361021f565b61026861026082610241565b8484546101b9565b825550505050565b600090565b61027d610270565b61028881848461024b565b505050565b5b818110156102ac576102a1600082610275565b60018101905061028e565b5050565b601f8211156102f1576102c281610187565b6102cb8461019c565b810160208510156102da578190505b6102ee6102e68561019c565b83018261028d565b50505b505050565b600082821c905092915050565b6000610314600019846008026102f6565b1980831691505092915050565b600061032d8383610303565b9150826002028217905092915050565b610346826100ed565b67ffffffffffffffff81111561035f5761035e6100f8565b5b6103698254610156565b6103748282856102b0565b600060209050601f8311600181146103a75760008415610395578287015190505b61039f8582610321565b865550610407565b601f1984166103b586610187565b60005b828110156103dd578489015182556001820191506020850194506020810190506103b8565b868310156103fa57848901516103f6601f891682610303565b8355505b6001600288020188555050505b505050505050565b6138ab8061041e6000396000f3fe6080604052600436106101145760003560e01c806370a08231116100a0578063b88d4fde11610064578063b88d4fde146103ca578063c87b56dd146103f3578063e5b7741414610430578063e985e9c514610459578063ecf29b4e1461049657610114565b806370a08231146102d157806395d89b411461030e578063a22cb46514610339578063b2bf12f114610362578063b707b9621461038d57610114565b806323b872dd116100e757806323b872dd146101e7578063397f79521461021057806342842e0e1461023b5780636352211e146102645780636fa830a6146102a157610114565b806301ffc9a71461011957806306fdde0314610156578063081812fc14610181578063095ea7b3146101be575b600080fd5b34801561012557600080fd5b50610140600480360381019061013b91906126ca565b6104d3565b60405161014d9190612712565b60405180910390f35b34801561016257600080fd5b5061016b6105b5565b60405161017891906127bd565b60405180910390f35b34801561018d57600080fd5b506101a860048036038101906101a39190612815565b610647565b6040516101b59190612883565b60405180910390f35b3480156101ca57600080fd5b506101e560048036038101906101e091906128ca565b61068d565b005b3480156101f357600080fd5b5061020e6004803603810190610209919061290a565b6107a4565b005b34801561021c57600080fd5b50610225610804565b6040516102329190612aa1565b60405180910390f35b34801561024757600080fd5b50610262600480360381019061025d919061290a565b610a26565b005b34801561027057600080fd5b5061028b60048036038101906102869190612815565b610a46565b6040516102989190612883565b60405180910390f35b6102bb60048036038101906102b69190612815565b610acc565b6040516102c89190612b2b565b60405180910390f35b3480156102dd57600080fd5b506102f860048036038101906102f39190612b46565b610ebf565b6040516103059190612b82565b60405180910390f35b34801561031a57600080fd5b50610323610f76565b60405161033091906127bd565b60405180910390f35b34801561034557600080fd5b50610360600480360381019061035b9190612bc9565b611008565b005b34801561036e57600080fd5b5061037761101e565b6040516103849190612aa1565b60405180910390f35b34801561039957600080fd5b506103b460048036038101906103af9190612815565b611243565b6040516103c19190612b2b565b60405180910390f35b3480156103d657600080fd5b506103f160048036038101906103ec9190612d3e565b61139d565b005b3480156103ff57600080fd5b5061041a60048036038101906104159190612815565b6113ff565b60405161042791906127bd565b60405180910390f35b34801561043c57600080fd5b5061045760048036038101906104529190612b46565b611467565b005b34801561046557600080fd5b50610480600480360381019061047b9190612dc1565b61156f565b60405161048d9190612712565b60405180910390f35b3480156104a257600080fd5b506104bd60048036038101906104b89190612e01565b611603565b6040516104ca9190612b2b565b60405180910390f35b60007f80ac58cd000000000000000000000000000000000000000000000000000000007bffffffffffffffffffffffffffffffffffffffffffffffffffffffff1916827bffffffffffffffffffffffffffffffffffffffffffffffffffffffff1916148061059e57507f5b5e139f000000000000000000000000000000000000000000000000000000007bffffffffffffffffffffffffffffffffffffffffffffffffffffffff1916827bffffffffffffffffffffffffffffffffffffffffffffffffffffffff1916145b806105ae57506105ad82611760565b5b9050919050565b6060600080546105c490612e70565b80601f01602080910402602001604051908101604052809291908181526020018280546105f090612e70565b801561063d5780601f106106125761010080835404028352916020019161063d565b820191906000526020600020905b81548152906001019060200180831161062057829003601f168201915b5050505050905090565b6000610652826117ca565b6004600083815260200190815260200160002060009054906101000a900473ffffffffffffffffffffffffffffffffffffffff169050919050565b600061069882610a46565b90508073ffffffffffffffffffffffffffffffffffffffff168373ffffffffffffffffffffffffffffffffffffffff1603610708576040517f08c379a00000000000000000000000000000000000000000000000000000000081526004016106ff90612f13565b60405180910390fd5b8073ffffffffffffffffffffffffffffffffffffffff16610727611815565b73ffffffffffffffffffffffffffffffffffffffff161480610756575061075581610750611815565b61156f565b5b610795576040517f08c379a000000000000000000000000000000000000000000000000000000000815260040161078c90612fa5565b60405180910390fd5b61079f838361181d565b505050565b6107b56107af611815565b826118d6565b6107f4576040517f08c379a00000000000000000000000000000000000000000000000000000000081526004016107eb90613037565b60405180910390fd5b6107ff83838361196b565b505050565b60606108446040518060400160405280601481526020017f43414c4c206765744d7950726f70657274696573000000000000000000000000815250611c64565b600061084f33610ebf565b905060008103610894576040517f08c379a000000000000000000000000000000000000000000000000000000000815260040161088b906130a3565b60405180910390fd5b60008167ffffffffffffffff8111156108b0576108af612c13565b5b6040519080825280602002602001820160405280156108e957816020015b6108d661260d565b8152602001906001900390816108ce5790505b5090506000805b600854811015610a1c573373ffffffffffffffffffffffffffffffffffffffff1661091a82610a46565b73ffffffffffffffffffffffffffffffffffffffff1603610a0f57600760008281526020019081526020016000206040518060a0016040529081600082015481526020016001820160009054906101000a900473ffffffffffffffffffffffffffffffffffffffff1673ffffffffffffffffffffffffffffffffffffffff1673ffffffffffffffffffffffffffffffffffffffff1681526020016001820160149054906101000a900460ff16151515158152602001600282015481526020016003820154815250508383815181106109f5576109f46130c3565b5b60200260200101819052508180610a0b90613121565b9250505b80806001019150506108f0565b5081935050505090565b610a418383836040518060200160405280600081525061139d565b505050565b600080610a5283611cfd565b9050600073ffffffffffffffffffffffffffffffffffffffff168173ffffffffffffffffffffffffffffffffffffffff1603610ac3576040517f08c379a0000000000000000000000000000000000000000000000000000000008152600401610aba906131b5565b60405180910390fd5b80915050919050565b610ad461260d565b6007600083815260200190815260200160002060020154341015610b2d576040517f08c379a0000000000000000000000000000000000000000000000000000000008152600401610b2490613221565b60405180910390fd5b6000600760008481526020019081526020016000206003015442610b519190613241565b905060006103e882610b6391906132a4565b90506000816007600087815260200190815260200160002060020154610b8991906132d5565b90506000606460056007600089815260200190815260200160002060020154610bb291906132d5565b610bbc91906132a4565b905080821115610bca578091505b600660009054906101000a900473ffffffffffffffffffffffffffffffffffffffff1673ffffffffffffffffffffffffffffffffffffffff166108fc839081150290604051600060405180830381858888f19350505050158015610c32573d6000803e3d6000fd5b506007600087815260200190815260200160002060010160009054906101000a900473ffffffffffffffffffffffffffffffffffffffff1673ffffffffffffffffffffffffffffffffffffffff166108fc83600760008a815260200190815260200160002060020154610ca59190613241565b9081150290604051600060405180830381858888f19350505050158015610cd0573d6000803e3d6000fd5b50610d126007600088815260200190815260200160002060010160009054906101000a900473ffffffffffffffffffffffffffffffffffffffff16338861196b565b336007600088815260200190815260200160002060010160006101000a81548173ffffffffffffffffffffffffffffffffffffffff021916908373ffffffffffffffffffffffffffffffffffffffff16021790555060006007600088815260200190815260200160002060010160146101000a81548160ff02191690831515021790555060006007600088815260200190815260200160002060020181905550600060076000888152602001908152602001600020600301819055507fb424abc5eb4b182f4334d7f8fa7c796e8d0b113fa9b68319cb6faefffbf0f18c8633604051610dff929190613317565b60405180910390a1600760008781526020019081526020016000206040518060a0016040529081600082015481526020016001820160009054906101000a900473ffffffffffffffffffffffffffffffffffffffff1673ffffffffffffffffffffffffffffffffffffffff1673ffffffffffffffffffffffffffffffffffffffff1681526020016001820160149054906101000a900460ff1615151515815260200160028201548152602001600382015481525050945050505050919050565b60008073ffffffffffffffffffffffffffffffffffffffff168273ffffffffffffffffffffffffffffffffffffffff1603610f2f576040517f08c379a0000000000000000000000000000000000000000000000000000000008152600401610f26906133b2565b60405180910390fd5b600360008373ffffffffffffffffffffffffffffffffffffffff1673ffffffffffffffffffffffffffffffffffffffff168152602001908152602001600020549050919050565b606060018054610f8590612e70565b80601f0160208091040260200160405190810160405280929190818152602001828054610fb190612e70565b8015610ffe5780601f10610fd357610100808354040283529160200191610ffe565b820191906000526020600020905b815481529060010190602001808311610fe157829003601f168201915b5050505050905090565b61101a611013611815565b8383611d3a565b5050565b60606000805b60085481101561107957600115156007600083815260200190815260200160002060010160149054906101000a900460ff1615150361106c57818061106890613121565b9250505b8080600101915050611024565b50600081036110bd576040517f08c379a00000000000000000000000000000000000000000000000000000000081526004016110b4906130a3565b60405180910390fd5b60008167ffffffffffffffff8111156110d9576110d8612c13565b5b60405190808252806020026020018201604052801561111257816020015b6110ff61260d565b8152602001906001900390816110f75790505b5090506000805b60085481101561123957600115156007600083815260200190815260200160002060010160149054906101000a900460ff1615150361122c57600760008281526020019081526020016000206040518060a0016040529081600082015481526020016001820160009054906101000a900473ffffffffffffffffffffffffffffffffffffffff1673ffffffffffffffffffffffffffffffffffffffff1673ffffffffffffffffffffffffffffffffffffffff1681526020016001820160149054906101000a900460ff1615151515815260200160028201548152602001600382015481525050838381518110611212576112116130c3565b5b6020026020010181905250818061122890613121565b9250505b8080600101915050611119565b5081935050505090565b61124b61260d565b60006007600084815260200190815260200160002060010160146101000a81548160ff02191690831515021790555060006007600084815260200190815260200160002060020181905550600060076000848152602001908152602001600020600301819055507f942937dc6d0cc26c67647aa9070ca30f898cb7065af6f6ecfd36ae644b12d50d826040516112e19190612b82565b60405180910390a1600760008381526020019081526020016000206040518060a0016040529081600082015481526020016001820160009054906101000a900473ffffffffffffffffffffffffffffffffffffffff1673ffffffffffffffffffffffffffffffffffffffff1673ffffffffffffffffffffffffffffffffffffffff1681526020016001820160149054906101000a900460ff16151515158152602001600282015481526020016003820154815250509050919050565b6113ae6113a8611815565b836118d6565b6113ed576040517f08c379a00000000000000000000000000000000000000000000000000000000081526004016113e490613037565b60405180910390fd5b6113f984848484611ea6565b50505050565b606061140a826117ca565b6000611414611f02565b90506000815111611434576040518060200160405280600081525061145f565b8061143e84611f19565b60405160200161144f92919061340e565b6040516020818303038152906040525b915050919050565b61147381600854611fe7565b6040518060a0016040528060085481526020018273ffffffffffffffffffffffffffffffffffffffff1681526020016000151581526020016000815260200160008152506007600060085481526020019081526020016000206000820151816000015560208201518160010160006101000a81548173ffffffffffffffffffffffffffffffffffffffff021916908373ffffffffffffffffffffffffffffffffffffffff16021790555060408201518160010160146101000a81548160ff02191690831515021790555060608201518160020155608082015181600301559050506008600081548092919061156790613121565b919050555050565b6000600560008473ffffffffffffffffffffffffffffffffffffffff1673ffffffffffffffffffffffffffffffffffffffff16815260200190815260200160002060008373ffffffffffffffffffffffffffffffffffffffff1673ffffffffffffffffffffffffffffffffffffffff16815260200190815260200160002060009054906101000a900460ff16905092915050565b61160b61260d565b60016007600085815260200190815260200160002060010160146101000a81548160ff0219169083151502179055508160076000858152602001908152602001600020600201819055504260076000858152602001908152602001600020600301819055507fa4ec11db0137d20377835df0da35a21d4420a28c905e562f896514b8ba551fb18383336040516116a393929190613432565b60405180910390a1600760008481526020019081526020016000206040518060a0016040529081600082015481526020016001820160009054906101000a900473ffffffffffffffffffffffffffffffffffffffff1673ffffffffffffffffffffffffffffffffffffffff1673ffffffffffffffffffffffffffffffffffffffff1681526020016001820160149054906101000a900460ff1615151515815260200160028201548152602001600382015481525050905092915050565b60007f01ffc9a7000000000000000000000000000000000000000000000000000000007bffffffffffffffffffffffffffffffffffffffffffffffffffffffff1916827bffffffffffffffffffffffffffffffffffffffffffffffffffffffff1916149050919050565b6117d381612005565b611812576040517f08c379a0000000000000000000000000000000000000000000000000000000008152600401611809906131b5565b60405180910390fd5b50565b600033905090565b816004600083815260200190815260200160002060006101000a81548173ffffffffffffffffffffffffffffffffffffffff021916908373ffffffffffffffffffffffffffffffffffffffff160217905550808273ffffffffffffffffffffffffffffffffffffffff1661189083610a46565b73ffffffffffffffffffffffffffffffffffffffff167f8c5be1e5ebec7d5bd14f71427d1e84f3dd0314c0f7b2291e5b200ac8c7c3b92560405160405180910390a45050565b6000806118e283610a46565b90508073ffffffffffffffffffffffffffffffffffffffff168473ffffffffffffffffffffffffffffffffffffffff1614806119245750611923818561156f565b5b8061196257508373ffffffffffffffffffffffffffffffffffffffff1661194a84610647565b73ffffffffffffffffffffffffffffffffffffffff16145b91505092915050565b8273ffffffffffffffffffffffffffffffffffffffff1661198b82610a46565b73ffffffffffffffffffffffffffffffffffffffff16146119e1576040517f08c379a00000000000000000000000000000000000000000000000000000000081526004016119d8906134db565b60405180910390fd5b600073ffffffffffffffffffffffffffffffffffffffff168273ffffffffffffffffffffffffffffffffffffffff1603611a50576040517f08c379a0000000000000000000000000000000000000000000000000000000008152600401611a479061356d565b60405180910390fd5b611a5d8383836001612046565b8273ffffffffffffffffffffffffffffffffffffffff16611a7d82610a46565b73ffffffffffffffffffffffffffffffffffffffff1614611ad3576040517f08c379a0000000000000000000000000000000000000000000000000000000008152600401611aca906134db565b60405180910390fd5b6004600082815260200190815260200160002060006101000a81549073ffffffffffffffffffffffffffffffffffffffff02191690556001600360008573ffffffffffffffffffffffffffffffffffffffff1673ffffffffffffffffffffffffffffffffffffffff168152602001908152602001600020600082825403925050819055506001600360008473ffffffffffffffffffffffffffffffffffffffff1673ffffffffffffffffffffffffffffffffffffffff16815260200190815260200160002060008282540192505081905550816002600083815260200190815260200160002060006101000a81548173ffffffffffffffffffffffffffffffffffffffff021916908373ffffffffffffffffffffffffffffffffffffffff160217905550808273ffffffffffffffffffffffffffffffffffffffff168473ffffffffffffffffffffffffffffffffffffffff167fddf252ad1be2c89b69c2b068fc378daa952ba7f163c4a11628f55a4df523b3ef60405160405180910390a4611c5f838383600161204c565b505050565b611cfa81604051602401611c7891906127bd565b6040516020818303038152906040527f41304fac000000000000000000000000000000000000000000000000000000007bffffffffffffffffffffffffffffffffffffffffffffffffffffffff19166020820180517bffffffffffffffffffffffffffffffffffffffffffffffffffffffff8381831617835250505050612052565b50565b60006002600083815260200190815260200160002060009054906101000a900473ffffffffffffffffffffffffffffffffffffffff169050919050565b8173ffffffffffffffffffffffffffffffffffffffff168373ffffffffffffffffffffffffffffffffffffffff1603611da8576040517f08c379a0000000000000000000000000000000000000000000000000000000008152600401611d9f906135d9565b60405180910390fd5b80600560008573ffffffffffffffffffffffffffffffffffffffff1673ffffffffffffffffffffffffffffffffffffffff16815260200190815260200160002060008473ffffffffffffffffffffffffffffffffffffffff1673ffffffffffffffffffffffffffffffffffffffff16815260200190815260200160002060006101000a81548160ff0219169083151502179055508173ffffffffffffffffffffffffffffffffffffffff168373ffffffffffffffffffffffffffffffffffffffff167f17307eab39ab6107e8899845ad3d59bd9653f200f220920489ca2b5937696c3183604051611e999190612712565b60405180910390a3505050565b611eb184848461196b565b611ebd8484848461206c565b611efc576040517f08c379a0000000000000000000000000000000000000000000000000000000008152600401611ef39061366b565b60405180910390fd5b50505050565b606060405180602001604052806000815250905090565b606060006001611f28846121f3565b01905060008167ffffffffffffffff811115611f4757611f46612c13565b5b6040519080825280601f01601f191660200182016040528015611f795781602001600182028036833780820191505090505b509050600082602001820190505b600115611fdc578080600190039150507f3031323334353637383961626364656600000000000000000000000000000000600a86061a8153600a8581611fd057611fcf613275565b5b04945060008503611f87575b819350505050919050565b612001828260405180602001604052806000815250612346565b5050565b60008073ffffffffffffffffffffffffffffffffffffffff1661202783611cfd565b73ffffffffffffffffffffffffffffffffffffffff1614159050919050565b50505050565b50505050565b612069816120616123a16123c2565b63ffffffff16565b50565b600061208d8473ffffffffffffffffffffffffffffffffffffffff166123cd565b156121e6578373ffffffffffffffffffffffffffffffffffffffff1663150b7a026120b6611815565b8786866040518563ffffffff1660e01b81526004016120d894939291906136e0565b6020604051808303816000875af192505050801561211457506040513d601f19601f820116820180604052508101906121119190613741565b60015b612196573d8060008114612144576040519150601f19603f3d011682016040523d82523d6000602084013e612149565b606091505b50600081510361218e576040517f08c379a00000000000000000000000000000000000000000000000000000000081526004016121859061366b565b60405180910390fd5b805181602001fd5b63150b7a0260e01b7bffffffffffffffffffffffffffffffffffffffffffffffffffffffff1916817bffffffffffffffffffffffffffffffffffffffffffffffffffffffff1916149150506121eb565b600190505b949350505050565b600080600090507a184f03e93ff9f4daa797ed6e38ed64bf6a1f0100000000000000008310612251577a184f03e93ff9f4daa797ed6e38ed64bf6a1f010000000000000000838161224757612246613275565b5b0492506040810190505b6d04ee2d6d415b85acef8100000000831061228e576d04ee2d6d415b85acef8100000000838161228457612283613275565b5b0492506020810190505b662386f26fc1000083106122bd57662386f26fc1000083816122b3576122b2613275565b5b0492506010810190505b6305f5e10083106122e6576305f5e10083816122dc576122db613275565b5b0492506008810190505b612710831061230b57612710838161230157612300613275565b5b0492506004810190505b6064831061232e576064838161232457612323613275565b5b0492506002810190505b600a831061233d576001810190505b80915050919050565b61235083836123f0565b61235d600084848461206c565b61239c576040517f08c379a00000000000000000000000000000000000000000000000000000000081526004016123939061366b565b60405180910390fd5b505050565b60006a636f6e736f6c652e6c6f679050600080835160208501845afa505050565b612654819050919050565b6000808273ffffffffffffffffffffffffffffffffffffffff163b119050919050565b600073ffffffffffffffffffffffffffffffffffffffff168273ffffffffffffffffffffffffffffffffffffffff160361245f576040517f08c379a0000000000000000000000000000000000000000000000000000000008152600401612456906137ba565b60405180910390fd5b61246881612005565b156124a8576040517f08c379a000000000000000000000000000000000000000000000000000000000815260040161249f90613826565b60405180910390fd5b6124b6600083836001612046565b6124bf81612005565b156124ff576040517f08c379a00000000000000000000000000000000000000000000000000000000081526004016124f690613826565b60405180910390fd5b6001600360008473ffffffffffffffffffffffffffffffffffffffff1673ffffffffffffffffffffffffffffffffffffffff16815260200190815260200160002060008282540192505081905550816002600083815260200190815260200160002060006101000a81548173ffffffffffffffffffffffffffffffffffffffff021916908373ffffffffffffffffffffffffffffffffffffffff160217905550808273ffffffffffffffffffffffffffffffffffffffff16600073ffffffffffffffffffffffffffffffffffffffff167fddf252ad1be2c89b69c2b068fc378daa952ba7f163c4a11628f55a4df523b3ef60405160405180910390a461260960008383600161204c565b5050565b6040518060a0016040528060008152602001600073ffffffffffffffffffffffffffffffffffffffff16815260200160001515815260200160008152602001600081525090565b61265c613846565b565b6000604051905090565b600080fd5b600080fd5b60007fffffffff0000000000000000000000000000000000000000000000000000000082169050919050565b6126a781612672565b81146126b257600080fd5b50565b6000813590506126c48161269e565b92915050565b6000602082840312156126e0576126df612668565b5b60006126ee848285016126b5565b91505092915050565b60008115159050919050565b61270c816126f7565b82525050565b60006020820190506127276000830184612703565b92915050565b600081519050919050565b600082825260208201905092915050565b60005b8381101561276757808201518184015260208101905061274c565b60008484015250505050565b6000601f19601f8301169050919050565b600061278f8261272d565b6127998185612738565b93506127a9818560208601612749565b6127b281612773565b840191505092915050565b600060208201905081810360008301526127d78184612784565b905092915050565b6000819050919050565b6127f2816127df565b81146127fd57600080fd5b50565b60008135905061280f816127e9565b92915050565b60006020828403121561282b5761282a612668565b5b600061283984828501612800565b91505092915050565b600073ffffffffffffffffffffffffffffffffffffffff82169050919050565b600061286d82612842565b9050919050565b61287d81612862565b82525050565b60006020820190506128986000830184612874565b92915050565b6128a781612862565b81146128b257600080fd5b50565b6000813590506128c48161289e565b92915050565b600080604083850312156128e1576128e0612668565b5b60006128ef858286016128b5565b925050602061290085828601612800565b9150509250929050565b60008060006060848603121561292357612922612668565b5b6000612931868287016128b5565b9350506020612942868287016128b5565b925050604061295386828701612800565b9150509250925092565b600081519050919050565b600082825260208201905092915050565b6000819050602082019050919050565b612992816127df565b82525050565b6129a181612862565b82525050565b6129b0816126f7565b82525050565b60a0820160008201516129cc6000850182612989565b5060208201516129df6020850182612998565b5060408201516129f260408501826129a7565b506060820151612a056060850182612989565b506080820151612a186080850182612989565b50505050565b6000612a2a83836129b6565b60a08301905092915050565b6000602082019050919050565b6000612a4e8261295d565b612a588185612968565b9350612a6383612979565b8060005b83811015612a94578151612a7b8882612a1e565b9750612a8683612a36565b925050600181019050612a67565b5085935050505092915050565b60006020820190508181036000830152612abb8184612a43565b905092915050565b60a082016000820151612ad96000850182612989565b506020820151612aec6020850182612998565b506040820151612aff60408501826129a7565b506060820151612b126060850182612989565b506080820151612b256080850182612989565b50505050565b600060a082019050612b406000830184612ac3565b92915050565b600060208284031215612b5c57612b5b612668565b5b6000612b6a848285016128b5565b91505092915050565b612b7c816127df565b82525050565b6000602082019050612b976000830184612b73565b92915050565b612ba6816126f7565b8114612bb157600080fd5b50565b600081359050612bc381612b9d565b92915050565b60008060408385031215612be057612bdf612668565b5b6000612bee858286016128b5565b9250506020612bff85828601612bb4565b9150509250929050565b600080fd5b600080fd5b7f4e487b7100000000000000000000000000000000000000000000000000000000600052604160045260246000fd5b612c4b82612773565b810181811067ffffffffffffffff82111715612c6a57612c69612c13565b5b80604052505050565b6000612c7d61265e565b9050612c898282612c42565b919050565b600067ffffffffffffffff821115612ca957612ca8612c13565b5b612cb282612773565b9050602081019050919050565b82818337600083830152505050565b6000612ce1612cdc84612c8e565b612c73565b905082815260208101848484011115612cfd57612cfc612c0e565b5b612d08848285612cbf565b509392505050565b600082601f830112612d2557612d24612c09565b5b8135612d35848260208601612cce565b91505092915050565b60008060008060808587031215612d5857612d57612668565b5b6000612d66878288016128b5565b9450506020612d77878288016128b5565b9350506040612d8887828801612800565b925050606085013567ffffffffffffffff811115612da957612da861266d565b5b612db587828801612d10565b91505092959194509250565b60008060408385031215612dd857612dd7612668565b5b6000612de6858286016128b5565b9250506020612df7858286016128b5565b9150509250929050565b60008060408385031215612e1857612e17612668565b5b6000612e2685828601612800565b9250506020612e3785828601612800565b9150509250929050565b7f4e487b7100000000000000000000000000000000000000000000000000000000600052602260045260246000fd5b60006002820490506001821680612e8857607f821691505b602082108103612e9b57612e9a612e41565b5b50919050565b7f4552433732313a20617070726f76616c20746f2063757272656e74206f776e6560008201527f7200000000000000000000000000000000000000000000000000000000000000602082015250565b6000612efd602183612738565b9150612f0882612ea1565b604082019050919050565b60006020820190508181036000830152612f2c81612ef0565b9050919050565b7f4552433732313a20617070726f76652063616c6c6572206973206e6f7420746f60008201527f6b656e206f776e6572206f7220617070726f76656420666f7220616c6c000000602082015250565b6000612f8f603d83612738565b9150612f9a82612f33565b604082019050919050565b60006020820190508181036000830152612fbe81612f82565b9050919050565b7f4552433732313a2063616c6c6572206973206e6f7420746f6b656e206f776e6560008201527f72206f7220617070726f76656400000000000000000000000000000000000000602082015250565b6000613021602d83612738565b915061302c82612fc5565b604082019050919050565b6000602082019050818103600083015261305081613014565b9050919050565b7f4e6f2070726f7065727469657300000000000000000000000000000000000000600082015250565b600061308d600d83612738565b915061309882613057565b602082019050919050565b600060208201905081810360008301526130bc81613080565b9050919050565b7f4e487b7100000000000000000000000000000000000000000000000000000000600052603260045260246000fd5b7f4e487b7100000000000000000000000000000000000000000000000000000000600052601160045260246000fd5b600061312c826127df565b91507fffffffffffffffffffffffffffffffffffffffffffffffffffffffffffffffff820361315e5761315d6130f2565b5b600182019050919050565b7f4552433732313a20696e76616c696420746f6b656e2049440000000000000000600082015250565b600061319f601883612738565b91506131aa82613169565b602082019050919050565b600060208201905081810360008301526131ce81613192565b9050919050565b7f455448204e6f7420456e6f756768000000000000000000000000000000000000600082015250565b600061320b600e83612738565b9150613216826131d5565b602082019050919050565b6000602082019050818103600083015261323a816131fe565b9050919050565b600061324c826127df565b9150613257836127df565b925082820390508181111561326f5761326e6130f2565b5b92915050565b7f4e487b7100000000000000000000000000000000000000000000000000000000600052601260045260246000fd5b60006132af826127df565b91506132ba836127df565b9250826132ca576132c9613275565b5b828204905092915050565b60006132e0826127df565b91506132eb836127df565b92508282026132f9816127df565b915082820484148315176133105761330f6130f2565b5b5092915050565b600060408201905061332c6000830185612b73565b6133396020830184612874565b9392505050565b7f4552433732313a2061646472657373207a65726f206973206e6f74206120766160008201527f6c6964206f776e65720000000000000000000000000000000000000000000000602082015250565b600061339c602983612738565b91506133a782613340565b604082019050919050565b600060208201905081810360008301526133cb8161338f565b9050919050565b600081905092915050565b60006133e88261272d565b6133f281856133d2565b9350613402818560208601612749565b80840191505092915050565b600061341a82856133dd565b915061342682846133dd565b91508190509392505050565b60006060820190506134476000830186612b73565b6134546020830185612b73565b6134616040830184612874565b949350505050565b7f4552433732313a207472616e736665722066726f6d20696e636f72726563742060008201527f6f776e6572000000000000000000000000000000000000000000000000000000602082015250565b60006134c5602583612738565b91506134d082613469565b604082019050919050565b600060208201905081810360008301526134f4816134b8565b9050919050565b7f4552433732313a207472616e7366657220746f20746865207a65726f2061646460008201527f7265737300000000000000000000000000000000000000000000000000000000602082015250565b6000613557602483612738565b9150613562826134fb565b604082019050919050565b600060208201905081810360008301526135868161354a565b9050919050565b7f4552433732313a20617070726f766520746f2063616c6c657200000000000000600082015250565b60006135c3601983612738565b91506135ce8261358d565b602082019050919050565b600060208201905081810360008301526135f2816135b6565b9050919050565b7f4552433732313a207472616e7366657220746f206e6f6e20455243373231526560008201527f63656976657220696d706c656d656e7465720000000000000000000000000000602082015250565b6000613655603283612738565b9150613660826135f9565b604082019050919050565b6000602082019050818103600083015261368481613648565b9050919050565b600081519050919050565b600082825260208201905092915050565b60006136b28261368b565b6136bc8185613696565b93506136cc818560208601612749565b6136d581612773565b840191505092915050565b60006080820190506136f56000830187612874565b6137026020830186612874565b61370f6040830185612b73565b818103606083015261372181846136a7565b905095945050505050565b60008151905061373b8161269e565b92915050565b60006020828403121561375757613756612668565b5b60006137658482850161372c565b91505092915050565b7f4552433732313a206d696e7420746f20746865207a65726f2061646472657373600082015250565b60006137a4602083612738565b91506137af8261376e565b602082019050919050565b600060208201905081810360008301526137d381613797565b9050919050565b7f4552433732313a20746f6b656e20616c7265616479206d696e74656400000000600082015250565b6000613810601c83612738565b915061381b826137da565b602082019050919050565b6000602082019050818103600083015261383f81613803565b9050919050565b7f4e487b7100000000000000000000000000000000000000000000000000000000600052605160045260246000fdfea2646970667358221220724819f63cd0043f530749ca317492128988c3610cb69894ed1ed9903d3c5f8964736f6c634300081b0033",
  "linkReferences": {},
  "deployedLinkReferences": {}
}